{
	"contracts/Finance.sol": {
		"Finance": {
			"abi": [
				{
					"inputs": [
						{
							"internalType": "uint256",
							"name": "_money",
							"type": "uint256"
						}
					],
					"name": "addMoney",
					"outputs": [],
					"stateMutability": "nonpayable",
					"type": "function"
				},
				{
					"inputs": [
						{
							"internalType": "uint256",
							"name": "_value",
							"type": "uint256"
						}
					],
					"name": "exampleFunction",
					"outputs": [],
					"stateMutability": "pure",
					"type": "function"
				},
				{
					"inputs": [
						{
							"internalType": "uint256",
							"name": "_param1",
							"type": "uint256"
						},
						{
							"internalType": "uint256[]",
							"name": "_param2",
							"type": "uint256[]"
						}
					],
					"name": "exampleFunction",
					"outputs": [
						{
							"internalType": "uint256",
							"name": "",
							"type": "uint256"
						}
					],
					"stateMutability": "pure",
					"type": "function"
				},
				{
					"inputs": [
						{
							"internalType": "uint256",
							"name": "a",
							"type": "uint256"
						},
						{
							"internalType": "uint256",
							"name": "b",
							"type": "uint256"
						}
					],
					"name": "getComputes",
					"outputs": [
						{
							"internalType": "uint256",
							"name": "",
							"type": "uint256"
						}
					],
					"stateMutability": "pure",
					"type": "function"
				},
				{
					"inputs": [],
					"name": "getMoney",
					"outputs": [
						{
							"internalType": "uint256",
							"name": "",
							"type": "uint256"
						}
					],
					"stateMutability": "view",
					"type": "function"
				},
				{
					"inputs": [],
					"name": "money",
					"outputs": [
						{
							"internalType": "uint256",
							"name": "",
							"type": "uint256"
						}
					],
					"stateMutability": "view",
					"type": "function"
				}
			],
			"devdoc": {
				"kind": "dev",
				"methods": {},
				"version": 1
			},
			"evm": {
				"assembly": "    /* \"contracts/Finance.sol\":68:1362  contract Finance{... */\n  mstore(0x40, 0x80)\n    /* \"contracts/Finance.sol\":166:167  0 */\n  0x00\n    /* \"contracts/Finance.sol\":145:167  uint256 public money=0 */\n  dup1\n  sstore\n    /* \"contracts/Finance.sol\":198:199  0 */\n  0x00\n    /* \"contracts/Finance.sol\":174:199  uint256 internal money1=0 */\n  0x01\n  sstore\n    /* \"contracts/Finance.sol\":238:239  0 */\n  0x00\n    /* \"contracts/Finance.sol\":214:239  uint256 private  money3=0 */\n  0x02\n  sstore\n    /* \"contracts/Finance.sol\":68:1362  contract Finance{... */\n  callvalue\n  dup1\n  iszero\n  tag_1\n  jumpi\n  0x00\n  dup1\n  revert\ntag_1:\n  pop\n  dataSize(sub_0)\n  dup1\n  dataOffset(sub_0)\n  0x00\n  codecopy\n  0x00\n  return\nstop\n\nsub_0: assembly {\n        /* \"contracts/Finance.sol\":68:1362  contract Finance{... */\n      mstore(0x40, 0x80)\n      callvalue\n      dup1\n      iszero\n      tag_1\n      jumpi\n      0x00\n      dup1\n      revert\n    tag_1:\n      pop\n      jumpi(tag_2, lt(calldatasize, 0x04))\n      shr(0xe0, calldataload(0x00))\n      dup1\n      0x26767938\n      eq\n      tag_3\n      jumpi\n      dup1\n      0x4ddd108a\n      eq\n      tag_4\n      jumpi\n      dup1\n      0x934bc29d\n      eq\n      tag_5\n      jumpi\n      dup1\n      0x98e1b410\n      eq\n      tag_6\n      jumpi\n      dup1\n      0xd0bc1a88\n      eq\n      tag_7\n      jumpi\n      dup1\n      0xe57af407\n      eq\n      tag_8\n      jumpi\n    tag_2:\n      0x00\n      dup1\n      revert\n        /* \"contracts/Finance.sol\":612:782  function getComputes(uint256 a,uint256 b)public pure returns (uint256){... */\n    tag_3:\n      tag_9\n      0x04\n      dup1\n      calldatasize\n      sub\n      dup2\n      add\n      swap1\n      tag_10\n      swap2\n      swap1\n      tag_11\n      jump\t// in\n    tag_10:\n      tag_12\n      jump\t// in\n    tag_9:\n      mload(0x40)\n      tag_13\n      swap2\n      swap1\n      tag_14\n      jump\t// in\n    tag_13:\n      mload(0x40)\n      dup1\n      swap2\n      sub\n      swap1\n      return\n        /* \"contracts/Finance.sol\":145:167  uint256 public money=0 */\n    tag_4:\n      tag_15\n      tag_16\n      jump\t// in\n    tag_15:\n      mload(0x40)\n      tag_17\n      swap2\n      swap1\n      tag_14\n      jump\t// in\n    tag_17:\n      mload(0x40)\n      dup1\n      swap2\n      sub\n      swap1\n      return\n        /* \"contracts/Finance.sol\":1214:1359  function exampleFunction(uint256 _value)external pure {... */\n    tag_5:\n      tag_18\n      0x04\n      dup1\n      calldatasize\n      sub\n      dup2\n      add\n      swap1\n      tag_19\n      swap2\n      swap1\n      tag_20\n      jump\t// in\n    tag_19:\n      tag_21\n      jump\t// in\n    tag_18:\n      stop\n        /* \"contracts/Finance.sol\":416:497  function getMoney() external view returns(uint256){... */\n    tag_6:\n      tag_22\n      tag_23\n      jump\t// in\n    tag_22:\n      mload(0x40)\n      tag_24\n      swap2\n      swap1\n      tag_14\n      jump\t// in\n    tag_24:\n      mload(0x40)\n      dup1\n      swap2\n      sub\n      swap1\n      return\n        /* \"contracts/Finance.sol\":305:380  function addMoney(uint256 _money) external  {... */\n    tag_7:\n      tag_25\n      0x04\n      dup1\n      calldatasize\n      sub\n      dup2\n      add\n      swap1\n      tag_26\n      swap2\n      swap1\n      tag_20\n      jump\t// in\n    tag_26:\n      tag_27\n      jump\t// in\n    tag_25:\n      stop\n        /* \"contracts/Finance.sol\":992:1163  function exampleFunction(uint256 _param1,uint256[] memory _param2)public pure  returns (uint256){... */\n    tag_8:\n      tag_28\n      0x04\n      dup1\n      calldatasize\n      sub\n      dup2\n      add\n      swap1\n      tag_29\n      swap2\n      swap1\n      tag_30\n      jump\t// in\n    tag_29:\n      tag_31\n      jump\t// in\n    tag_28:\n      mload(0x40)\n      tag_32\n      swap2\n      swap1\n      tag_14\n      jump\t// in\n    tag_32:\n      mload(0x40)\n      dup1\n      swap2\n      sub\n      swap1\n      return\n        /* \"contracts/Finance.sol\":612:782  function getComputes(uint256 a,uint256 b)public pure returns (uint256){... */\n    tag_12:\n        /* \"contracts/Finance.sol\":674:681  uint256 */\n      0x00\n        /* \"contracts/Finance.sol\":612:782  function getComputes(uint256 a,uint256 b)public pure returns (uint256){... */\n      swap3\n      swap2\n      pop\n      pop\n      jump\t// out\n        /* \"contracts/Finance.sol\":145:167  uint256 public money=0 */\n    tag_16:\n      sload(0x00)\n      dup2\n      jump\t// out\n        /* \"contracts/Finance.sol\":1214:1359  function exampleFunction(uint256 _value)external pure {... */\n    tag_21:\n        /* \"contracts/Finance.sol\":1296:1297  0 */\n      0x00\n        /* \"contracts/Finance.sol\":1287:1293  _value */\n      dup2\n        /* \"contracts/Finance.sol\":1287:1297  _value > 0 */\n      gt\n        /* \"contracts/Finance.sol\":1279:1330  require(_value > 0, \"Value must be greater than 0\") */\n      tag_35\n      jumpi\n      mload(0x40)\n      0x08c379a000000000000000000000000000000000000000000000000000000000\n      dup2\n      mstore\n      0x04\n      add\n      tag_36\n      swap1\n      tag_37\n      jump\t// in\n    tag_36:\n      mload(0x40)\n      dup1\n      swap2\n      sub\n      swap1\n      revert\n    tag_35:\n        /* \"contracts/Finance.sol\":1348:1351  100 */\n      0x64\n        /* \"contracts/Finance.sol\":1341:1351  _value=100 */\n      swap1\n      pop\n        /* \"contracts/Finance.sol\":1214:1359  function exampleFunction(uint256 _value)external pure {... */\n      pop\n      jump\t// out\n        /* \"contracts/Finance.sol\":416:497  function getMoney() external view returns(uint256){... */\n    tag_23:\n        /* \"contracts/Finance.sol\":458:465  uint256 */\n      0x00\n        /* \"contracts/Finance.sol\":484:489  money */\n      dup1\n      sload\n        /* \"contracts/Finance.sol\":477:489  return money */\n      swap1\n      pop\n        /* \"contracts/Finance.sol\":416:497  function getMoney() external view returns(uint256){... */\n      swap1\n      jump\t// out\n        /* \"contracts/Finance.sol\":305:380  function addMoney(uint256 _money) external  {... */\n    tag_27:\n        /* \"contracts/Finance.sol\":366:372  _money */\n      dup1\n        /* \"contracts/Finance.sol\":360:365  money */\n      0x00\n        /* \"contracts/Finance.sol\":360:372  money=_money */\n      dup2\n      swap1\n      sstore\n      pop\n        /* \"contracts/Finance.sol\":305:380  function addMoney(uint256 _money) external  {... */\n      pop\n      jump\t// out\n        /* \"contracts/Finance.sol\":992:1163  function exampleFunction(uint256 _param1,uint256[] memory _param2)public pure  returns (uint256){... */\n    tag_31:\n        /* \"contracts/Finance.sol\":1080:1087  uint256 */\n      0x00\n        /* \"contracts/Finance.sol\":1100:1111  uint256 num */\n      dup1\n        /* \"contracts/Finance.sol\":1123:1130  _param2 */\n      dup3\n        /* \"contracts/Finance.sol\":1131:1132  0 */\n      0x00\n        /* \"contracts/Finance.sol\":1123:1133  _param2[0] */\n      dup2\n      mload\n      dup2\n      lt\n      tag_41\n      jumpi\n      tag_42\n      tag_43\n      jump\t// in\n    tag_42:\n    tag_41:\n      0x20\n      mul\n      0x20\n      add\n      add\n      mload\n        /* \"contracts/Finance.sol\":1120:1122  10 */\n      0x0a\n        /* \"contracts/Finance.sol\":1112:1119  _param1 */\n      dup6\n        /* \"contracts/Finance.sol\":1112:1122  _param1+10 */\n      tag_44\n      swap2\n      swap1\n      tag_45\n      jump\t// in\n    tag_44:\n        /* \"contracts/Finance.sol\":1112:1133  _param1+10+_param2[0] */\n      tag_46\n      swap2\n      swap1\n      tag_45\n      jump\t// in\n    tag_46:\n        /* \"contracts/Finance.sol\":1100:1133  uint256 num=_param1+10+_param2[0] */\n      swap1\n      pop\n        /* \"contracts/Finance.sol\":1152:1155  num */\n      dup1\n        /* \"contracts/Finance.sol\":1145:1155  return num */\n      swap2\n      pop\n      pop\n        /* \"contracts/Finance.sol\":992:1163  function exampleFunction(uint256 _param1,uint256[] memory _param2)public pure  returns (uint256){... */\n      swap3\n      swap2\n      pop\n      pop\n      jump\t// out\n        /* \"#utility.yul\":7:82   */\n    tag_47:\n        /* \"#utility.yul\":40:46   */\n      0x00\n        /* \"#utility.yul\":73:75   */\n      0x40\n        /* \"#utility.yul\":67:76   */\n      mload\n        /* \"#utility.yul\":57:76   */\n      swap1\n      pop\n        /* \"#utility.yul\":7:82   */\n      swap1\n      jump\t// out\n        /* \"#utility.yul\":88:205   */\n    tag_48:\n        /* \"#utility.yul\":197:198   */\n      0x00\n        /* \"#utility.yul\":194:195   */\n      dup1\n        /* \"#utility.yul\":187:199   */\n      revert\n        /* \"#utility.yul\":211:328   */\n    tag_49:\n        /* \"#utility.yul\":320:321   */\n      0x00\n        /* \"#utility.yul\":317:318   */\n      dup1\n        /* \"#utility.yul\":310:322   */\n      revert\n        /* \"#utility.yul\":334:411   */\n    tag_50:\n        /* \"#utility.yul\":371:378   */\n      0x00\n        /* \"#utility.yul\":400:405   */\n      dup2\n        /* \"#utility.yul\":389:405   */\n      swap1\n      pop\n        /* \"#utility.yul\":334:411   */\n      swap2\n      swap1\n      pop\n      jump\t// out\n        /* \"#utility.yul\":417:539   */\n    tag_51:\n        /* \"#utility.yul\":490:514   */\n      tag_73\n        /* \"#utility.yul\":508:513   */\n      dup2\n        /* \"#utility.yul\":490:514   */\n      tag_50\n      jump\t// in\n    tag_73:\n        /* \"#utility.yul\":483:488   */\n      dup2\n        /* \"#utility.yul\":480:515   */\n      eq\n        /* \"#utility.yul\":470:533   */\n      tag_74\n      jumpi\n        /* \"#utility.yul\":529:530   */\n      0x00\n        /* \"#utility.yul\":526:527   */\n      dup1\n        /* \"#utility.yul\":519:531   */\n      revert\n        /* \"#utility.yul\":470:533   */\n    tag_74:\n        /* \"#utility.yul\":417:539   */\n      pop\n      jump\t// out\n        /* \"#utility.yul\":545:684   */\n    tag_52:\n        /* \"#utility.yul\":591:596   */\n      0x00\n        /* \"#utility.yul\":629:635   */\n      dup2\n        /* \"#utility.yul\":616:636   */\n      calldataload\n        /* \"#utility.yul\":607:636   */\n      swap1\n      pop\n        /* \"#utility.yul\":645:678   */\n      tag_76\n        /* \"#utility.yul\":672:677   */\n      dup2\n        /* \"#utility.yul\":645:678   */\n      tag_51\n      jump\t// in\n    tag_76:\n        /* \"#utility.yul\":545:684   */\n      swap3\n      swap2\n      pop\n      pop\n      jump\t// out\n        /* \"#utility.yul\":690:1164   */\n    tag_11:\n        /* \"#utility.yul\":758:764   */\n      0x00\n        /* \"#utility.yul\":766:772   */\n      dup1\n        /* \"#utility.yul\":815:817   */\n      0x40\n        /* \"#utility.yul\":803:812   */\n      dup4\n        /* \"#utility.yul\":794:801   */\n      dup6\n        /* \"#utility.yul\":790:813   */\n      sub\n        /* \"#utility.yul\":786:818   */\n      slt\n        /* \"#utility.yul\":783:902   */\n      iszero\n      tag_78\n      jumpi\n        /* \"#utility.yul\":821:900   */\n      tag_79\n      tag_48\n      jump\t// in\n    tag_79:\n        /* \"#utility.yul\":783:902   */\n    tag_78:\n        /* \"#utility.yul\":941:942   */\n      0x00\n        /* \"#utility.yul\":966:1019   */\n      tag_80\n        /* \"#utility.yul\":1011:1018   */\n      dup6\n        /* \"#utility.yul\":1002:1008   */\n      dup3\n        /* \"#utility.yul\":991:1000   */\n      dup7\n        /* \"#utility.yul\":987:1009   */\n      add\n        /* \"#utility.yul\":966:1019   */\n      tag_52\n      jump\t// in\n    tag_80:\n        /* \"#utility.yul\":956:1019   */\n      swap3\n      pop\n        /* \"#utility.yul\":912:1029   */\n      pop\n        /* \"#utility.yul\":1068:1070   */\n      0x20\n        /* \"#utility.yul\":1094:1147   */\n      tag_81\n        /* \"#utility.yul\":1139:1146   */\n      dup6\n        /* \"#utility.yul\":1130:1136   */\n      dup3\n        /* \"#utility.yul\":1119:1128   */\n      dup7\n        /* \"#utility.yul\":1115:1137   */\n      add\n        /* \"#utility.yul\":1094:1147   */\n      tag_52\n      jump\t// in\n    tag_81:\n        /* \"#utility.yul\":1084:1147   */\n      swap2\n      pop\n        /* \"#utility.yul\":1039:1157   */\n      pop\n        /* \"#utility.yul\":690:1164   */\n      swap3\n      pop\n      swap3\n      swap1\n      pop\n      jump\t// out\n        /* \"#utility.yul\":1170:1288   */\n    tag_53:\n        /* \"#utility.yul\":1257:1281   */\n      tag_83\n        /* \"#utility.yul\":1275:1280   */\n      dup2\n        /* \"#utility.yul\":1257:1281   */\n      tag_50\n      jump\t// in\n    tag_83:\n        /* \"#utility.yul\":1252:1255   */\n      dup3\n        /* \"#utility.yul\":1245:1282   */\n      mstore\n        /* \"#utility.yul\":1170:1288   */\n      pop\n      pop\n      jump\t// out\n        /* \"#utility.yul\":1294:1516   */\n    tag_14:\n        /* \"#utility.yul\":1387:1391   */\n      0x00\n        /* \"#utility.yul\":1425:1427   */\n      0x20\n        /* \"#utility.yul\":1414:1423   */\n      dup3\n        /* \"#utility.yul\":1410:1428   */\n      add\n        /* \"#utility.yul\":1402:1428   */\n      swap1\n      pop\n        /* \"#utility.yul\":1438:1509   */\n      tag_85\n        /* \"#utility.yul\":1506:1507   */\n      0x00\n        /* \"#utility.yul\":1495:1504   */\n      dup4\n        /* \"#utility.yul\":1491:1508   */\n      add\n        /* \"#utility.yul\":1482:1488   */\n      dup5\n        /* \"#utility.yul\":1438:1509   */\n      tag_53\n      jump\t// in\n    tag_85:\n        /* \"#utility.yul\":1294:1516   */\n      swap3\n      swap2\n      pop\n      pop\n      jump\t// out\n        /* \"#utility.yul\":1522:1851   */\n    tag_20:\n        /* \"#utility.yul\":1581:1587   */\n      0x00\n        /* \"#utility.yul\":1630:1632   */\n      0x20\n        /* \"#utility.yul\":1618:1627   */\n      dup3\n        /* \"#utility.yul\":1609:1616   */\n      dup5\n        /* \"#utility.yul\":1605:1628   */\n      sub\n        /* \"#utility.yul\":1601:1633   */\n      slt\n        /* \"#utility.yul\":1598:1717   */\n      iszero\n      tag_87\n      jumpi\n        /* \"#utility.yul\":1636:1715   */\n      tag_88\n      tag_48\n      jump\t// in\n    tag_88:\n        /* \"#utility.yul\":1598:1717   */\n    tag_87:\n        /* \"#utility.yul\":1756:1757   */\n      0x00\n        /* \"#utility.yul\":1781:1834   */\n      tag_89\n        /* \"#utility.yul\":1826:1833   */\n      dup5\n        /* \"#utility.yul\":1817:1823   */\n      dup3\n        /* \"#utility.yul\":1806:1815   */\n      dup6\n        /* \"#utility.yul\":1802:1824   */\n      add\n        /* \"#utility.yul\":1781:1834   */\n      tag_52\n      jump\t// in\n    tag_89:\n        /* \"#utility.yul\":1771:1834   */\n      swap2\n      pop\n        /* \"#utility.yul\":1727:1844   */\n      pop\n        /* \"#utility.yul\":1522:1851   */\n      swap3\n      swap2\n      pop\n      pop\n      jump\t// out\n        /* \"#utility.yul\":1857:1974   */\n    tag_54:\n        /* \"#utility.yul\":1966:1967   */\n      0x00\n        /* \"#utility.yul\":1963:1964   */\n      dup1\n        /* \"#utility.yul\":1956:1968   */\n      revert\n        /* \"#utility.yul\":1980:2082   */\n    tag_55:\n        /* \"#utility.yul\":2021:2027   */\n      0x00\n        /* \"#utility.yul\":2072:2074   */\n      0x1f\n        /* \"#utility.yul\":2068:2075   */\n      not\n        /* \"#utility.yul\":2063:2065   */\n      0x1f\n        /* \"#utility.yul\":2056:2061   */\n      dup4\n        /* \"#utility.yul\":2052:2066   */\n      add\n        /* \"#utility.yul\":2048:2076   */\n      and\n        /* \"#utility.yul\":2038:2076   */\n      swap1\n      pop\n        /* \"#utility.yul\":1980:2082   */\n      swap2\n      swap1\n      pop\n      jump\t// out\n        /* \"#utility.yul\":2088:2268   */\n    tag_56:\n        /* \"#utility.yul\":2136:2213   */\n      0x4e487b7100000000000000000000000000000000000000000000000000000000\n        /* \"#utility.yul\":2133:2134   */\n      0x00\n        /* \"#utility.yul\":2126:2214   */\n      mstore\n        /* \"#utility.yul\":2233:2237   */\n      0x41\n        /* \"#utility.yul\":2230:2231   */\n      0x04\n        /* \"#utility.yul\":2223:2238   */\n      mstore\n        /* \"#utility.yul\":2257:2261   */\n      0x24\n        /* \"#utility.yul\":2254:2255   */\n      0x00\n        /* \"#utility.yul\":2247:2262   */\n      revert\n        /* \"#utility.yul\":2274:2555   */\n    tag_57:\n        /* \"#utility.yul\":2357:2384   */\n      tag_94\n        /* \"#utility.yul\":2379:2383   */\n      dup3\n        /* \"#utility.yul\":2357:2384   */\n      tag_55\n      jump\t// in\n    tag_94:\n        /* \"#utility.yul\":2349:2355   */\n      dup2\n        /* \"#utility.yul\":2345:2385   */\n      add\n        /* \"#utility.yul\":2487:2493   */\n      dup2\n        /* \"#utility.yul\":2475:2485   */\n      dup2\n        /* \"#utility.yul\":2472:2494   */\n      lt\n        /* \"#utility.yul\":2451:2469   */\n      0xffffffffffffffff\n        /* \"#utility.yul\":2439:2449   */\n      dup3\n        /* \"#utility.yul\":2436:2470   */\n      gt\n        /* \"#utility.yul\":2433:2495   */\n      or\n        /* \"#utility.yul\":2430:2518   */\n      iszero\n      tag_95\n      jumpi\n        /* \"#utility.yul\":2498:2516   */\n      tag_96\n      tag_56\n      jump\t// in\n    tag_96:\n        /* \"#utility.yul\":2430:2518   */\n    tag_95:\n        /* \"#utility.yul\":2538:2548   */\n      dup1\n        /* \"#utility.yul\":2534:2536   */\n      0x40\n        /* \"#utility.yul\":2527:2549   */\n      mstore\n        /* \"#utility.yul\":2317:2555   */\n      pop\n        /* \"#utility.yul\":2274:2555   */\n      pop\n      pop\n      jump\t// out\n        /* \"#utility.yul\":2561:2690   */\n    tag_58:\n        /* \"#utility.yul\":2595:2601   */\n      0x00\n        /* \"#utility.yul\":2622:2642   */\n      tag_98\n      tag_47\n      jump\t// in\n    tag_98:\n        /* \"#utility.yul\":2612:2642   */\n      swap1\n      pop\n        /* \"#utility.yul\":2651:2684   */\n      tag_99\n        /* \"#utility.yul\":2679:2683   */\n      dup3\n        /* \"#utility.yul\":2671:2677   */\n      dup3\n        /* \"#utility.yul\":2651:2684   */\n      tag_57\n      jump\t// in\n    tag_99:\n        /* \"#utility.yul\":2561:2690   */\n      swap2\n      swap1\n      pop\n      jump\t// out\n        /* \"#utility.yul\":2696:3007   */\n    tag_59:\n        /* \"#utility.yul\":2773:2777   */\n      0x00\n        /* \"#utility.yul\":2863:2881   */\n      0xffffffffffffffff\n        /* \"#utility.yul\":2855:2861   */\n      dup3\n        /* \"#utility.yul\":2852:2882   */\n      gt\n        /* \"#utility.yul\":2849:2905   */\n      iszero\n      tag_101\n      jumpi\n        /* \"#utility.yul\":2885:2903   */\n      tag_102\n      tag_56\n      jump\t// in\n    tag_102:\n        /* \"#utility.yul\":2849:2905   */\n    tag_101:\n        /* \"#utility.yul\":2935:2939   */\n      0x20\n        /* \"#utility.yul\":2927:2933   */\n      dup3\n        /* \"#utility.yul\":2923:2940   */\n      mul\n        /* \"#utility.yul\":2915:2940   */\n      swap1\n      pop\n        /* \"#utility.yul\":2995:2999   */\n      0x20\n        /* \"#utility.yul\":2989:2993   */\n      dup2\n        /* \"#utility.yul\":2985:3000   */\n      add\n        /* \"#utility.yul\":2977:3000   */\n      swap1\n      pop\n        /* \"#utility.yul\":2696:3007   */\n      swap2\n      swap1\n      pop\n      jump\t// out\n        /* \"#utility.yul\":3013:3130   */\n    tag_60:\n        /* \"#utility.yul\":3122:3123   */\n      0x00\n        /* \"#utility.yul\":3119:3120   */\n      dup1\n        /* \"#utility.yul\":3112:3124   */\n      revert\n        /* \"#utility.yul\":3153:3863   */\n    tag_61:\n        /* \"#utility.yul\":3249:3254   */\n      0x00\n        /* \"#utility.yul\":3274:3355   */\n      tag_105\n        /* \"#utility.yul\":3290:3354   */\n      tag_106\n        /* \"#utility.yul\":3347:3353   */\n      dup5\n        /* \"#utility.yul\":3290:3354   */\n      tag_59\n      jump\t// in\n    tag_106:\n        /* \"#utility.yul\":3274:3355   */\n      tag_58\n      jump\t// in\n    tag_105:\n        /* \"#utility.yul\":3265:3355   */\n      swap1\n      pop\n        /* \"#utility.yul\":3375:3380   */\n      dup1\n        /* \"#utility.yul\":3404:3410   */\n      dup4\n        /* \"#utility.yul\":3397:3402   */\n      dup3\n        /* \"#utility.yul\":3390:3411   */\n      mstore\n        /* \"#utility.yul\":3438:3442   */\n      0x20\n        /* \"#utility.yul\":3431:3436   */\n      dup3\n        /* \"#utility.yul\":3427:3443   */\n      add\n        /* \"#utility.yul\":3420:3443   */\n      swap1\n      pop\n        /* \"#utility.yul\":3491:3495   */\n      0x20\n        /* \"#utility.yul\":3483:3489   */\n      dup5\n        /* \"#utility.yul\":3479:3496   */\n      mul\n        /* \"#utility.yul\":3471:3477   */\n      dup4\n        /* \"#utility.yul\":3467:3497   */\n      add\n        /* \"#utility.yul\":3520:3523   */\n      dup6\n        /* \"#utility.yul\":3512:3518   */\n      dup2\n        /* \"#utility.yul\":3509:3524   */\n      gt\n        /* \"#utility.yul\":3506:3628   */\n      iszero\n      tag_107\n      jumpi\n        /* \"#utility.yul\":3539:3618   */\n      tag_108\n      tag_60\n      jump\t// in\n    tag_108:\n        /* \"#utility.yul\":3506:3628   */\n    tag_107:\n        /* \"#utility.yul\":3654:3660   */\n      dup4\n        /* \"#utility.yul\":3637:3857   */\n    tag_109:\n        /* \"#utility.yul\":3671:3677   */\n      dup2\n        /* \"#utility.yul\":3666:3669   */\n      dup2\n        /* \"#utility.yul\":3663:3678   */\n      lt\n        /* \"#utility.yul\":3637:3857   */\n      iszero\n      tag_111\n      jumpi\n        /* \"#utility.yul\":3746:3749   */\n      dup1\n        /* \"#utility.yul\":3775:3812   */\n      tag_112\n        /* \"#utility.yul\":3808:3811   */\n      dup9\n        /* \"#utility.yul\":3796:3806   */\n      dup3\n        /* \"#utility.yul\":3775:3812   */\n      tag_52\n      jump\t// in\n    tag_112:\n        /* \"#utility.yul\":3770:3773   */\n      dup5\n        /* \"#utility.yul\":3763:3813   */\n      mstore\n        /* \"#utility.yul\":3842:3846   */\n      0x20\n        /* \"#utility.yul\":3837:3840   */\n      dup5\n        /* \"#utility.yul\":3833:3847   */\n      add\n        /* \"#utility.yul\":3826:3847   */\n      swap4\n      pop\n        /* \"#utility.yul\":3713:3857   */\n      pop\n        /* \"#utility.yul\":3697:3701   */\n      0x20\n        /* \"#utility.yul\":3692:3695   */\n      dup2\n        /* \"#utility.yul\":3688:3702   */\n      add\n        /* \"#utility.yul\":3681:3702   */\n      swap1\n      pop\n        /* \"#utility.yul\":3637:3857   */\n      jump(tag_109)\n    tag_111:\n        /* \"#utility.yul\":3641:3662   */\n      pop\n        /* \"#utility.yul\":3255:3863   */\n      pop\n      pop\n        /* \"#utility.yul\":3153:3863   */\n      swap4\n      swap3\n      pop\n      pop\n      pop\n      jump\t// out\n        /* \"#utility.yul\":3886:4256   */\n    tag_62:\n        /* \"#utility.yul\":3957:3962   */\n      0x00\n        /* \"#utility.yul\":4006:4009   */\n      dup3\n        /* \"#utility.yul\":3999:4003   */\n      0x1f\n        /* \"#utility.yul\":3991:3997   */\n      dup4\n        /* \"#utility.yul\":3987:4004   */\n      add\n        /* \"#utility.yul\":3983:4010   */\n      slt\n        /* \"#utility.yul\":3973:4095   */\n      tag_114\n      jumpi\n        /* \"#utility.yul\":4014:4093   */\n      tag_115\n      tag_54\n      jump\t// in\n    tag_115:\n        /* \"#utility.yul\":3973:4095   */\n    tag_114:\n        /* \"#utility.yul\":4131:4137   */\n      dup2\n        /* \"#utility.yul\":4118:4138   */\n      calldataload\n        /* \"#utility.yul\":4156:4250   */\n      tag_116\n        /* \"#utility.yul\":4246:4249   */\n      dup5\n        /* \"#utility.yul\":4238:4244   */\n      dup3\n        /* \"#utility.yul\":4231:4235   */\n      0x20\n        /* \"#utility.yul\":4223:4229   */\n      dup7\n        /* \"#utility.yul\":4219:4236   */\n      add\n        /* \"#utility.yul\":4156:4250   */\n      tag_61\n      jump\t// in\n    tag_116:\n        /* \"#utility.yul\":4147:4250   */\n      swap2\n      pop\n        /* \"#utility.yul\":3963:4256   */\n      pop\n        /* \"#utility.yul\":3886:4256   */\n      swap3\n      swap2\n      pop\n      pop\n      jump\t// out\n        /* \"#utility.yul\":4262:4946   */\n    tag_30:\n        /* \"#utility.yul\":4355:4361   */\n      0x00\n        /* \"#utility.yul\":4363:4369   */\n      dup1\n        /* \"#utility.yul\":4412:4414   */\n      0x40\n        /* \"#utility.yul\":4400:4409   */\n      dup4\n        /* \"#utility.yul\":4391:4398   */\n      dup6\n        /* \"#utility.yul\":4387:4410   */\n      sub\n        /* \"#utility.yul\":4383:4415   */\n      slt\n        /* \"#utility.yul\":4380:4499   */\n      iszero\n      tag_118\n      jumpi\n        /* \"#utility.yul\":4418:4497   */\n      tag_119\n      tag_48\n      jump\t// in\n    tag_119:\n        /* \"#utility.yul\":4380:4499   */\n    tag_118:\n        /* \"#utility.yul\":4538:4539   */\n      0x00\n        /* \"#utility.yul\":4563:4616   */\n      tag_120\n        /* \"#utility.yul\":4608:4615   */\n      dup6\n        /* \"#utility.yul\":4599:4605   */\n      dup3\n        /* \"#utility.yul\":4588:4597   */\n      dup7\n        /* \"#utility.yul\":4584:4606   */\n      add\n        /* \"#utility.yul\":4563:4616   */\n      tag_52\n      jump\t// in\n    tag_120:\n        /* \"#utility.yul\":4553:4616   */\n      swap3\n      pop\n        /* \"#utility.yul\":4509:4626   */\n      pop\n        /* \"#utility.yul\":4693:4695   */\n      0x20\n        /* \"#utility.yul\":4682:4691   */\n      dup4\n        /* \"#utility.yul\":4678:4696   */\n      add\n        /* \"#utility.yul\":4665:4697   */\n      calldataload\n        /* \"#utility.yul\":4724:4742   */\n      0xffffffffffffffff\n        /* \"#utility.yul\":4716:4722   */\n      dup2\n        /* \"#utility.yul\":4713:4743   */\n      gt\n        /* \"#utility.yul\":4710:4827   */\n      iszero\n      tag_121\n      jumpi\n        /* \"#utility.yul\":4746:4825   */\n      tag_122\n      tag_49\n      jump\t// in\n    tag_122:\n        /* \"#utility.yul\":4710:4827   */\n    tag_121:\n        /* \"#utility.yul\":4851:4929   */\n      tag_123\n        /* \"#utility.yul\":4921:4928   */\n      dup6\n        /* \"#utility.yul\":4912:4918   */\n      dup3\n        /* \"#utility.yul\":4901:4910   */\n      dup7\n        /* \"#utility.yul\":4897:4919   */\n      add\n        /* \"#utility.yul\":4851:4929   */\n      tag_62\n      jump\t// in\n    tag_123:\n        /* \"#utility.yul\":4841:4929   */\n      swap2\n      pop\n        /* \"#utility.yul\":4636:4939   */\n      pop\n        /* \"#utility.yul\":4262:4946   */\n      swap3\n      pop\n      swap3\n      swap1\n      pop\n      jump\t// out\n        /* \"#utility.yul\":4952:5121   */\n    tag_63:\n        /* \"#utility.yul\":5036:5047   */\n      0x00\n        /* \"#utility.yul\":5070:5076   */\n      dup3\n        /* \"#utility.yul\":5065:5068   */\n      dup3\n        /* \"#utility.yul\":5058:5077   */\n      mstore\n        /* \"#utility.yul\":5110:5114   */\n      0x20\n        /* \"#utility.yul\":5105:5108   */\n      dup3\n        /* \"#utility.yul\":5101:5115   */\n      add\n        /* \"#utility.yul\":5086:5115   */\n      swap1\n      pop\n        /* \"#utility.yul\":4952:5121   */\n      swap3\n      swap2\n      pop\n      pop\n      jump\t// out\n        /* \"#utility.yul\":5127:5305   */\n    tag_64:\n        /* \"#utility.yul\":5267:5297   */\n      0x56616c7565206d7573742062652067726561746572207468616e203000000000\n        /* \"#utility.yul\":5263:5264   */\n      0x00\n        /* \"#utility.yul\":5255:5261   */\n      dup3\n        /* \"#utility.yul\":5251:5265   */\n      add\n        /* \"#utility.yul\":5244:5298   */\n      mstore\n        /* \"#utility.yul\":5127:5305   */\n      pop\n      jump\t// out\n        /* \"#utility.yul\":5311:5677   */\n    tag_65:\n        /* \"#utility.yul\":5453:5456   */\n      0x00\n        /* \"#utility.yul\":5474:5541   */\n      tag_127\n        /* \"#utility.yul\":5538:5540   */\n      0x1c\n        /* \"#utility.yul\":5533:5536   */\n      dup4\n        /* \"#utility.yul\":5474:5541   */\n      tag_63\n      jump\t// in\n    tag_127:\n        /* \"#utility.yul\":5467:5541   */\n      swap2\n      pop\n        /* \"#utility.yul\":5550:5643   */\n      tag_128\n        /* \"#utility.yul\":5639:5642   */\n      dup3\n        /* \"#utility.yul\":5550:5643   */\n      tag_64\n      jump\t// in\n    tag_128:\n        /* \"#utility.yul\":5668:5670   */\n      0x20\n        /* \"#utility.yul\":5663:5666   */\n      dup3\n        /* \"#utility.yul\":5659:5671   */\n      add\n        /* \"#utility.yul\":5652:5671   */\n      swap1\n      pop\n        /* \"#utility.yul\":5311:5677   */\n      swap2\n      swap1\n      pop\n      jump\t// out\n        /* \"#utility.yul\":5683:6102   */\n    tag_37:\n        /* \"#utility.yul\":5849:5853   */\n      0x00\n        /* \"#utility.yul\":5887:5889   */\n      0x20\n        /* \"#utility.yul\":5876:5885   */\n      dup3\n        /* \"#utility.yul\":5872:5890   */\n      add\n        /* \"#utility.yul\":5864:5890   */\n      swap1\n      pop\n        /* \"#utility.yul\":5936:5945   */\n      dup2\n        /* \"#utility.yul\":5930:5934   */\n      dup2\n        /* \"#utility.yul\":5926:5946   */\n      sub\n        /* \"#utility.yul\":5922:5923   */\n      0x00\n        /* \"#utility.yul\":5911:5920   */\n      dup4\n        /* \"#utility.yul\":5907:5924   */\n      add\n        /* \"#utility.yul\":5900:5947   */\n      mstore\n        /* \"#utility.yul\":5964:6095   */\n      tag_130\n        /* \"#utility.yul\":6090:6094   */\n      dup2\n        /* \"#utility.yul\":5964:6095   */\n      tag_65\n      jump\t// in\n    tag_130:\n        /* \"#utility.yul\":5956:6095   */\n      swap1\n      pop\n        /* \"#utility.yul\":5683:6102   */\n      swap2\n      swap1\n      pop\n      jump\t// out\n        /* \"#utility.yul\":6108:6288   */\n    tag_43:\n        /* \"#utility.yul\":6156:6233   */\n      0x4e487b7100000000000000000000000000000000000000000000000000000000\n        /* \"#utility.yul\":6153:6154   */\n      0x00\n        /* \"#utility.yul\":6146:6234   */\n      mstore\n        /* \"#utility.yul\":6253:6257   */\n      0x32\n        /* \"#utility.yul\":6250:6251   */\n      0x04\n        /* \"#utility.yul\":6243:6258   */\n      mstore\n        /* \"#utility.yul\":6277:6281   */\n      0x24\n        /* \"#utility.yul\":6274:6275   */\n      0x00\n        /* \"#utility.yul\":6267:6282   */\n      revert\n        /* \"#utility.yul\":6294:6474   */\n    tag_66:\n        /* \"#utility.yul\":6342:6419   */\n      0x4e487b7100000000000000000000000000000000000000000000000000000000\n        /* \"#utility.yul\":6339:6340   */\n      0x00\n        /* \"#utility.yul\":6332:6420   */\n      mstore\n        /* \"#utility.yul\":6439:6443   */\n      0x11\n        /* \"#utility.yul\":6436:6437   */\n      0x04\n        /* \"#utility.yul\":6429:6444   */\n      mstore\n        /* \"#utility.yul\":6463:6467   */\n      0x24\n        /* \"#utility.yul\":6460:6461   */\n      0x00\n        /* \"#utility.yul\":6453:6468   */\n      revert\n        /* \"#utility.yul\":6480:6671   */\n    tag_45:\n        /* \"#utility.yul\":6520:6523   */\n      0x00\n        /* \"#utility.yul\":6539:6559   */\n      tag_134\n        /* \"#utility.yul\":6557:6558   */\n      dup3\n        /* \"#utility.yul\":6539:6559   */\n      tag_50\n      jump\t// in\n    tag_134:\n        /* \"#utility.yul\":6534:6559   */\n      swap2\n      pop\n        /* \"#utility.yul\":6573:6593   */\n      tag_135\n        /* \"#utility.yul\":6591:6592   */\n      dup4\n        /* \"#utility.yul\":6573:6593   */\n      tag_50\n      jump\t// in\n    tag_135:\n        /* \"#utility.yul\":6568:6593   */\n      swap3\n      pop\n        /* \"#utility.yul\":6616:6617   */\n      dup3\n        /* \"#utility.yul\":6613:6614   */\n      dup3\n        /* \"#utility.yul\":6609:6618   */\n      add\n        /* \"#utility.yul\":6602:6618   */\n      swap1\n      pop\n        /* \"#utility.yul\":6637:6640   */\n      dup1\n        /* \"#utility.yul\":6634:6635   */\n      dup3\n        /* \"#utility.yul\":6631:6641   */\n      gt\n        /* \"#utility.yul\":6628:6664   */\n      iszero\n      tag_136\n      jumpi\n        /* \"#utility.yul\":6644:6662   */\n      tag_137\n      tag_66\n      jump\t// in\n    tag_137:\n        /* \"#utility.yul\":6628:6664   */\n    tag_136:\n        /* \"#utility.yul\":6480:6671   */\n      swap3\n      swap2\n      pop\n      pop\n      jump\t// out\n\n    auxdata: 0xa2646970667358221220e24aee5bd0df81e8ddf3ddbba07224132347bf9c03fc69cf4ecce7c78a45841f64736f6c63430008160033\n}\n",
				"bytecode": {
					"linkReferences": {},
					"object": "60806040525f80555f6001555f60025534801561001a575f80fd5b50610598806100285f395ff3fe608060405234801561000f575f80fd5b5060043610610060575f3560e01c806326767938146100645780634ddd108a14610094578063934bc29d146100b257806398e1b410146100ce578063d0bc1a88146100ec578063e57af40714610108575b5f80fd5b61007e60048036038101906100799190610222565b610138565b60405161008b919061026f565b60405180910390f35b61009c61013f565b6040516100a9919061026f565b60405180910390f35b6100cc60048036038101906100c79190610288565b610144565b005b6100d661018d565b6040516100e3919061026f565b60405180910390f35b61010660048036038101906101019190610288565b610195565b005b610122600480360381019061011d9190610403565b61019e565b60405161012f919061026f565b60405180910390f35b5f92915050565b5f5481565b5f8111610186576040517f08c379a000000000000000000000000000000000000000000000000000000000815260040161017d906104b7565b60405180910390fd5b6064905050565b5f8054905090565b805f8190555050565b5f80825f815181106101b3576101b26104d5565b5b6020026020010151600a856101c8919061052f565b6101d2919061052f565b90508091505092915050565b5f604051905090565b5f80fd5b5f80fd5b5f819050919050565b610201816101ef565b811461020b575f80fd5b50565b5f8135905061021c816101f8565b92915050565b5f8060408385031215610238576102376101e7565b5b5f6102458582860161020e565b92505060206102568582860161020e565b9150509250929050565b610269816101ef565b82525050565b5f6020820190506102825f830184610260565b92915050565b5f6020828403121561029d5761029c6101e7565b5b5f6102aa8482850161020e565b91505092915050565b5f80fd5b5f601f19601f8301169050919050565b7f4e487b71000000000000000000000000000000000000000000000000000000005f52604160045260245ffd5b6102fd826102b7565b810181811067ffffffffffffffff8211171561031c5761031b6102c7565b5b80604052505050565b5f61032e6101de565b905061033a82826102f4565b919050565b5f67ffffffffffffffff821115610359576103586102c7565b5b602082029050602081019050919050565b5f80fd5b5f61038061037b8461033f565b610325565b905080838252602082019050602084028301858111156103a3576103a261036a565b5b835b818110156103cc57806103b8888261020e565b8452602084019350506020810190506103a5565b5050509392505050565b5f82601f8301126103ea576103e96102b3565b5b81356103fa84826020860161036e565b91505092915050565b5f8060408385031215610419576104186101e7565b5b5f6104268582860161020e565b925050602083013567ffffffffffffffff811115610447576104466101eb565b5b610453858286016103d6565b9150509250929050565b5f82825260208201905092915050565b7f56616c7565206d7573742062652067726561746572207468616e2030000000005f82015250565b5f6104a1601c8361045d565b91506104ac8261046d565b602082019050919050565b5f6020820190508181035f8301526104ce81610495565b9050919050565b7f4e487b71000000000000000000000000000000000000000000000000000000005f52603260045260245ffd5b7f4e487b71000000000000000000000000000000000000000000000000000000005f52601160045260245ffd5b5f610539826101ef565b9150610544836101ef565b925082820190508082111561055c5761055b610502565b5b9291505056fea2646970667358221220e24aee5bd0df81e8ddf3ddbba07224132347bf9c03fc69cf4ecce7c78a45841f64736f6c63430008160033",
					"opcodes": "PUSH1 0x80 PUSH1 0x40 MSTORE PUSH0 DUP1 SSTORE PUSH0 PUSH1 0x1 SSTORE PUSH0 PUSH1 0x2 SSTORE CALLVALUE DUP1 ISZERO PUSH2 0x1A JUMPI PUSH0 DUP1 REVERT JUMPDEST POP PUSH2 0x598 DUP1 PUSH2 0x28 PUSH0 CODECOPY PUSH0 RETURN INVALID PUSH1 0x80 PUSH1 0x40 MSTORE CALLVALUE DUP1 ISZERO PUSH2 0xF JUMPI PUSH0 DUP1 REVERT JUMPDEST POP PUSH1 0x4 CALLDATASIZE LT PUSH2 0x60 JUMPI PUSH0 CALLDATALOAD PUSH1 0xE0 SHR DUP1 PUSH4 0x26767938 EQ PUSH2 0x64 JUMPI DUP1 PUSH4 0x4DDD108A EQ PUSH2 0x94 JUMPI DUP1 PUSH4 0x934BC29D EQ PUSH2 0xB2 JUMPI DUP1 PUSH4 0x98E1B410 EQ PUSH2 0xCE JUMPI DUP1 PUSH4 0xD0BC1A88 EQ PUSH2 0xEC JUMPI DUP1 PUSH4 0xE57AF407 EQ PUSH2 0x108 JUMPI JUMPDEST PUSH0 DUP1 REVERT JUMPDEST PUSH2 0x7E PUSH1 0x4 DUP1 CALLDATASIZE SUB DUP2 ADD SWAP1 PUSH2 0x79 SWAP2 SWAP1 PUSH2 0x222 JUMP JUMPDEST PUSH2 0x138 JUMP JUMPDEST PUSH1 0x40 MLOAD PUSH2 0x8B SWAP2 SWAP1 PUSH2 0x26F JUMP JUMPDEST PUSH1 0x40 MLOAD DUP1 SWAP2 SUB SWAP1 RETURN JUMPDEST PUSH2 0x9C PUSH2 0x13F JUMP JUMPDEST PUSH1 0x40 MLOAD PUSH2 0xA9 SWAP2 SWAP1 PUSH2 0x26F JUMP JUMPDEST PUSH1 0x40 MLOAD DUP1 SWAP2 SUB SWAP1 RETURN JUMPDEST PUSH2 0xCC PUSH1 0x4 DUP1 CALLDATASIZE SUB DUP2 ADD SWAP1 PUSH2 0xC7 SWAP2 SWAP1 PUSH2 0x288 JUMP JUMPDEST PUSH2 0x144 JUMP JUMPDEST STOP JUMPDEST PUSH2 0xD6 PUSH2 0x18D JUMP JUMPDEST PUSH1 0x40 MLOAD PUSH2 0xE3 SWAP2 SWAP1 PUSH2 0x26F JUMP JUMPDEST PUSH1 0x40 MLOAD DUP1 SWAP2 SUB SWAP1 RETURN JUMPDEST PUSH2 0x106 PUSH1 0x4 DUP1 CALLDATASIZE SUB DUP2 ADD SWAP1 PUSH2 0x101 SWAP2 SWAP1 PUSH2 0x288 JUMP JUMPDEST PUSH2 0x195 JUMP JUMPDEST STOP JUMPDEST PUSH2 0x122 PUSH1 0x4 DUP1 CALLDATASIZE SUB DUP2 ADD SWAP1 PUSH2 0x11D SWAP2 SWAP1 PUSH2 0x403 JUMP JUMPDEST PUSH2 0x19E JUMP JUMPDEST PUSH1 0x40 MLOAD PUSH2 0x12F SWAP2 SWAP1 PUSH2 0x26F JUMP JUMPDEST PUSH1 0x40 MLOAD DUP1 SWAP2 SUB SWAP1 RETURN JUMPDEST PUSH0 SWAP3 SWAP2 POP POP JUMP JUMPDEST PUSH0 SLOAD DUP2 JUMP JUMPDEST PUSH0 DUP2 GT PUSH2 0x186 JUMPI PUSH1 0x40 MLOAD PUSH32 0x8C379A000000000000000000000000000000000000000000000000000000000 DUP2 MSTORE PUSH1 0x4 ADD PUSH2 0x17D SWAP1 PUSH2 0x4B7 JUMP JUMPDEST PUSH1 0x40 MLOAD DUP1 SWAP2 SUB SWAP1 REVERT JUMPDEST PUSH1 0x64 SWAP1 POP POP JUMP JUMPDEST PUSH0 DUP1 SLOAD SWAP1 POP SWAP1 JUMP JUMPDEST DUP1 PUSH0 DUP2 SWAP1 SSTORE POP POP JUMP JUMPDEST PUSH0 DUP1 DUP3 PUSH0 DUP2 MLOAD DUP2 LT PUSH2 0x1B3 JUMPI PUSH2 0x1B2 PUSH2 0x4D5 JUMP JUMPDEST JUMPDEST PUSH1 0x20 MUL PUSH1 0x20 ADD ADD MLOAD PUSH1 0xA DUP6 PUSH2 0x1C8 SWAP2 SWAP1 PUSH2 0x52F JUMP JUMPDEST PUSH2 0x1D2 SWAP2 SWAP1 PUSH2 0x52F JUMP JUMPDEST SWAP1 POP DUP1 SWAP2 POP POP SWAP3 SWAP2 POP POP JUMP JUMPDEST PUSH0 PUSH1 0x40 MLOAD SWAP1 POP SWAP1 JUMP JUMPDEST PUSH0 DUP1 REVERT JUMPDEST PUSH0 DUP1 REVERT JUMPDEST PUSH0 DUP2 SWAP1 POP SWAP2 SWAP1 POP JUMP JUMPDEST PUSH2 0x201 DUP2 PUSH2 0x1EF JUMP JUMPDEST DUP2 EQ PUSH2 0x20B JUMPI PUSH0 DUP1 REVERT JUMPDEST POP JUMP JUMPDEST PUSH0 DUP2 CALLDATALOAD SWAP1 POP PUSH2 0x21C DUP2 PUSH2 0x1F8 JUMP JUMPDEST SWAP3 SWAP2 POP POP JUMP JUMPDEST PUSH0 DUP1 PUSH1 0x40 DUP4 DUP6 SUB SLT ISZERO PUSH2 0x238 JUMPI PUSH2 0x237 PUSH2 0x1E7 JUMP JUMPDEST JUMPDEST PUSH0 PUSH2 0x245 DUP6 DUP3 DUP7 ADD PUSH2 0x20E JUMP JUMPDEST SWAP3 POP POP PUSH1 0x20 PUSH2 0x256 DUP6 DUP3 DUP7 ADD PUSH2 0x20E JUMP JUMPDEST SWAP2 POP POP SWAP3 POP SWAP3 SWAP1 POP JUMP JUMPDEST PUSH2 0x269 DUP2 PUSH2 0x1EF JUMP JUMPDEST DUP3 MSTORE POP POP JUMP JUMPDEST PUSH0 PUSH1 0x20 DUP3 ADD SWAP1 POP PUSH2 0x282 PUSH0 DUP4 ADD DUP5 PUSH2 0x260 JUMP JUMPDEST SWAP3 SWAP2 POP POP JUMP JUMPDEST PUSH0 PUSH1 0x20 DUP3 DUP5 SUB SLT ISZERO PUSH2 0x29D JUMPI PUSH2 0x29C PUSH2 0x1E7 JUMP JUMPDEST JUMPDEST PUSH0 PUSH2 0x2AA DUP5 DUP3 DUP6 ADD PUSH2 0x20E JUMP JUMPDEST SWAP2 POP POP SWAP3 SWAP2 POP POP JUMP JUMPDEST PUSH0 DUP1 REVERT JUMPDEST PUSH0 PUSH1 0x1F NOT PUSH1 0x1F DUP4 ADD AND SWAP1 POP SWAP2 SWAP1 POP JUMP JUMPDEST PUSH32 0x4E487B7100000000000000000000000000000000000000000000000000000000 PUSH0 MSTORE PUSH1 0x41 PUSH1 0x4 MSTORE PUSH1 0x24 PUSH0 REVERT JUMPDEST PUSH2 0x2FD DUP3 PUSH2 0x2B7 JUMP JUMPDEST DUP2 ADD DUP2 DUP2 LT PUSH8 0xFFFFFFFFFFFFFFFF DUP3 GT OR ISZERO PUSH2 0x31C JUMPI PUSH2 0x31B PUSH2 0x2C7 JUMP JUMPDEST JUMPDEST DUP1 PUSH1 0x40 MSTORE POP POP POP JUMP JUMPDEST PUSH0 PUSH2 0x32E PUSH2 0x1DE JUMP JUMPDEST SWAP1 POP PUSH2 0x33A DUP3 DUP3 PUSH2 0x2F4 JUMP JUMPDEST SWAP2 SWAP1 POP JUMP JUMPDEST PUSH0 PUSH8 0xFFFFFFFFFFFFFFFF DUP3 GT ISZERO PUSH2 0x359 JUMPI PUSH2 0x358 PUSH2 0x2C7 JUMP JUMPDEST JUMPDEST PUSH1 0x20 DUP3 MUL SWAP1 POP PUSH1 0x20 DUP2 ADD SWAP1 POP SWAP2 SWAP1 POP JUMP JUMPDEST PUSH0 DUP1 REVERT JUMPDEST PUSH0 PUSH2 0x380 PUSH2 0x37B DUP5 PUSH2 0x33F JUMP JUMPDEST PUSH2 0x325 JUMP JUMPDEST SWAP1 POP DUP1 DUP4 DUP3 MSTORE PUSH1 0x20 DUP3 ADD SWAP1 POP PUSH1 0x20 DUP5 MUL DUP4 ADD DUP6 DUP2 GT ISZERO PUSH2 0x3A3 JUMPI PUSH2 0x3A2 PUSH2 0x36A JUMP JUMPDEST JUMPDEST DUP4 JUMPDEST DUP2 DUP2 LT ISZERO PUSH2 0x3CC JUMPI DUP1 PUSH2 0x3B8 DUP9 DUP3 PUSH2 0x20E JUMP JUMPDEST DUP5 MSTORE PUSH1 0x20 DUP5 ADD SWAP4 POP POP PUSH1 0x20 DUP2 ADD SWAP1 POP PUSH2 0x3A5 JUMP JUMPDEST POP POP POP SWAP4 SWAP3 POP POP POP JUMP JUMPDEST PUSH0 DUP3 PUSH1 0x1F DUP4 ADD SLT PUSH2 0x3EA JUMPI PUSH2 0x3E9 PUSH2 0x2B3 JUMP JUMPDEST JUMPDEST DUP2 CALLDATALOAD PUSH2 0x3FA DUP5 DUP3 PUSH1 0x20 DUP7 ADD PUSH2 0x36E JUMP JUMPDEST SWAP2 POP POP SWAP3 SWAP2 POP POP JUMP JUMPDEST PUSH0 DUP1 PUSH1 0x40 DUP4 DUP6 SUB SLT ISZERO PUSH2 0x419 JUMPI PUSH2 0x418 PUSH2 0x1E7 JUMP JUMPDEST JUMPDEST PUSH0 PUSH2 0x426 DUP6 DUP3 DUP7 ADD PUSH2 0x20E JUMP JUMPDEST SWAP3 POP POP PUSH1 0x20 DUP4 ADD CALLDATALOAD PUSH8 0xFFFFFFFFFFFFFFFF DUP2 GT ISZERO PUSH2 0x447 JUMPI PUSH2 0x446 PUSH2 0x1EB JUMP JUMPDEST JUMPDEST PUSH2 0x453 DUP6 DUP3 DUP7 ADD PUSH2 0x3D6 JUMP JUMPDEST SWAP2 POP POP SWAP3 POP SWAP3 SWAP1 POP JUMP JUMPDEST PUSH0 DUP3 DUP3 MSTORE PUSH1 0x20 DUP3 ADD SWAP1 POP SWAP3 SWAP2 POP POP JUMP JUMPDEST PUSH32 0x56616C7565206D7573742062652067726561746572207468616E203000000000 PUSH0 DUP3 ADD MSTORE POP JUMP JUMPDEST PUSH0 PUSH2 0x4A1 PUSH1 0x1C DUP4 PUSH2 0x45D JUMP JUMPDEST SWAP2 POP PUSH2 0x4AC DUP3 PUSH2 0x46D JUMP JUMPDEST PUSH1 0x20 DUP3 ADD SWAP1 POP SWAP2 SWAP1 POP JUMP JUMPDEST PUSH0 PUSH1 0x20 DUP3 ADD SWAP1 POP DUP2 DUP2 SUB PUSH0 DUP4 ADD MSTORE PUSH2 0x4CE DUP2 PUSH2 0x495 JUMP JUMPDEST SWAP1 POP SWAP2 SWAP1 POP JUMP JUMPDEST PUSH32 0x4E487B7100000000000000000000000000000000000000000000000000000000 PUSH0 MSTORE PUSH1 0x32 PUSH1 0x4 MSTORE PUSH1 0x24 PUSH0 REVERT JUMPDEST PUSH32 0x4E487B7100000000000000000000000000000000000000000000000000000000 PUSH0 MSTORE PUSH1 0x11 PUSH1 0x4 MSTORE PUSH1 0x24 PUSH0 REVERT JUMPDEST PUSH0 PUSH2 0x539 DUP3 PUSH2 0x1EF JUMP JUMPDEST SWAP2 POP PUSH2 0x544 DUP4 PUSH2 0x1EF JUMP JUMPDEST SWAP3 POP DUP3 DUP3 ADD SWAP1 POP DUP1 DUP3 GT ISZERO PUSH2 0x55C JUMPI PUSH2 0x55B PUSH2 0x502 JUMP JUMPDEST JUMPDEST SWAP3 SWAP2 POP POP JUMP INVALID LOG2 PUSH5 0x6970667358 0x22 SLT KECCAK256 0xE2 0x4A 0xEE JUMPDEST 0xD0 0xDF DUP2 0xE8 0xDD RETURN 0xDD 0xBB LOG0 PUSH19 0x24132347BF9C03FC69CF4ECCE7C78A45841F64 PUSH20 0x6F6C634300081600330000000000000000000000 "
				},
				"gasEstimates": {
					"creation": {
						"codeDepositCost": "286400",
						"executionCost": "15337",
						"totalCost": "301737"
					},
					"external": {
						"addMoney(uint256)": "22580",
						"exampleFunction(uint256)": "727",
						"exampleFunction(uint256,uint256[])": "infinite",
						"getComputes(uint256,uint256)": "infinite",
						"getMoney()": "2476",
						"money()": "2424"
					},
					"internal": {
						"compute(uint256,uint256)": "infinite"
					}
				},
				"methodIdentifiers": {
					"addMoney(uint256)": "d0bc1a88",
					"exampleFunction(uint256)": "934bc29d",
					"exampleFunction(uint256,uint256[])": "e57af407",
					"getComputes(uint256,uint256)": "26767938",
					"getMoney()": "98e1b410",
					"money()": "4ddd108a"
				}
			},
			"storageLayout": {
				"storage": [
					{
						"astId": 4,
						"contract": "contracts/Finance.sol:Finance",
						"label": "money",
						"offset": 0,
						"slot": "0",
						"type": "t_uint256"
					},
					{
						"astId": 7,
						"contract": "contracts/Finance.sol:Finance",
						"label": "money1",
						"offset": 0,
						"slot": "1",
						"type": "t_uint256"
					},
					{
						"astId": 10,
						"contract": "contracts/Finance.sol:Finance",
						"label": "money3",
						"offset": 0,
						"slot": "2",
						"type": "t_uint256"
					}
				],
				"types": {
					"t_uint256": {
						"encoding": "inplace",
						"label": "uint256",
						"numberOfBytes": "32"
					}
				}
			},
			"userdoc": {
				"kind": "user",
				"methods": {},
				"version": 1
			}
		}
	}
}